:1000000000000120790C0000E90C0000EB0C00005E
:10001000ED0C0000EF0C0000F10C000000000000EF
:10002000000000000000000000000000F30C0000D1
:10003000F50C000000000000F70C0000F90C0000B7
:10004000FB0C0000FB0C0000FB0C0000FB0C000094
:10005000FB0C0000FB0C0000FB0C0000FB0C000084
:10006000FB0C0000FB0C0000FB0C0000FB0C000074
:10007000FB0C0000FB0C0000FB0C0000FB0C000064
:10008000FB0C0000FB0C0000FB0C0000FB0C000054
:10009000FB0C0000FB0C0000FB0C0000FB0C000044
:1000A000FB0C0000FB0C0000FB0C0000FB0C000034
:1000B000FB0C0000FB0C0000000000000000000032
:1000C000FB0C0000FB0C0000FB0C0000FB0C000014
:1000D000FB0C0000FB0C0000FB0C0000000000000B
:1000E0000000000000000000000000000000000010
:1000F0000000000000000000000000000000000000
:1001000000000000000000000000000000000000EF
:1001100000000000000000000000000000000000DF
:1001200000000000000000000000000000000000CF
:1001300000000000000000000000000000000000BF
:1001400000000000000000000000000000000000AF
:10015000000000000000000000000000000000009F
:10016000000000000000000000000000000000008F
:10017000000000000000000000000000000000007F
:10018000000000000000000000000000000000006F
:10019000000000000000000000000000000000005F
:1001A000000000000000000000000000000000004F
:1001B000000000000000000000000000000000003F
:1001C000000000000000000000000000000000002F
:1001D000000000000000000000000000000000001F
:1001E000000000000000000000000000000000000F
:1001F00000000000000000000000000000000000FF
:0402000010000020CA
:08020400900000000100000061
:10020C000348044B834202D0034B03B11847704799
:10021C00380400203804002000000000054806497E
:10022C000B1AD90F01EBA301491002D0034B03B1F8
:10023C0018477047380400203804002000000000E4
:10024C0010B5064C237843B9FFF7DAFF044B13B112
:10025C000448AFF300800123237010BD3804002044
:10026C0000000000940F000008B5044B1BB10449BA
:10027C000448AFF30080BDE80840CFE70000000061
:10028C003C040020940F0000A3F5803A704700BF97
:10029C00154B002B08BF114B9D46FFF7F5FF0021B6
:1002AC008B460F461148124A121A00F071FD0C4B86
:1002BC00002B00D098470B4B002B00D09847002008
:1002CC00002104000D000B4800F012FD00F03CFD75
:1002DC002000290000F010F800F010FD00000800CC
:1002EC000000000000000000000001203804002085
:1002FC0054040020290D000080B485B000AF1123F8
:10030C00FB6010E00122FB689A404FF0A043C3F859
:10031C0018250122FB689A404FF0A043C3F808252A
:10032C00FB680133FB60FB68142BEBDD4FF0A04343
:10033C000C22C3F82C274FF0A0430C22C3F8302713
:10034C004FF0A0430C22C3F834274FF0A0430C22EB
:10035C00C3F838270023BB6042F210737B604FF068
:10036C00A043D3F8103503F40053002B17D14FF0F2
:10037C00A0434FF40032C3F80C254FF0A0434FF4C8
:10038C008022C3F80C254FF0A0434FF40022C3F891
:10039C000C254FF0A0434FF48012C3F80C254FF0FE
:1003AC00A043D3F8103503F48043002B17D14FF042
:1003BC00A0434FF40032C3F808254FF0A0434FF48C
:1003CC008022C3F808254FF0A0434FF40022C3F855
:1003DC0008254FF0A0434FF48012C3F808257B6822
:1003EC00BB60BB68013BBB60BB68002BF9D1B6E7B7
:1003FC0080B483B000AF1E4B1B68B3F1FF3F0AD132
:10040C001C4B1B68DBB27B601B4B1B681B0903F08E
:10041C000F033B6005E0164B1B687B60174B1B689A
:10042C003B607B68062B1DD13B68033B042B17D824
:10043C0001A252F823F000BF590400005D04000033
:10044C0061040000650400006904000001230AE057
:10045C00012308E0012306E0012304E0012302E06C
:10046C00012300E0002318460C37BD4680BC7047C2
:10047C0030010010E00F00F0E80F00F03401001024
:10048C0080B483B000AF184B1B68DBB27B60174B9A
:10049C001B681B0903F00F033B607B68062B1DD107
:1004AC003B68033B042B17D801A252F823F000BF82
:1004BC00D1040000D5040000D9040000DD040000C4
:1004CC00E104000001230AE0002308E0002306E019
:1004DC00002304E0002302E0002300E00023184680
:1004EC000C37BD4680BC7047E00F00F0E80F00F001
:1004FC0080B483B000AF1E4B1B68B3F1FF3F0AD131
:10050C001C4B1B68DBB27B601B4B1B681B0903F08D
:10051C000F033B6005E0164B1B687B60174B1B6899
:10052C003B607B68062B1DD13B68033B042B17D823
:10053C0001A252F823F000BF590500005D05000030
:10054C0061050000650500006905000001230AE053
:10055C00012308E0012306E0012304E0012302E06B
:10056C00012300E0002318460C37BD4680BC7047C1
:10057C0030010010E00F00F0E80F00F03401001023
:10058C0080B483B000AF184B1B68DBB27B60174B99
:10059C001B681B0903F00F033B607B68062B1DD106
:1005AC003B68033B042B17D801A252F823F000BF81
:1005BC00D1050000D5050000D9050000DD050000BF
:1005CC00E105000001230AE0002308E0002306E017
:1005DC00002304E0002302E0002300E0002318467F
:1005EC000C37BD4680BC7047E00F00F0E80F00F000
:1005FC0080B483B000AF1E4B1B68B3F1FF3F0AD130
:10060C001C4B1B68DBB27B601B4B1B681B0903F08C
:10061C000F033B6005E0164B1B687B60174B1B6898
:10062C003B607B68062B1DD13B68033B042B17D822
:10063C0001A252F823F000BF590600005D0600002D
:10064C0061060000650600006906000001230AE04F
:10065C00012308E0012306E0012304E0012302E06A
:10066C00012300E0002318460C37BD4680BC7047C0
:10067C0030010010E00F00F0E80F00F03401001022
:10068C0080B483B000AF184B1B68DBB27B60174B98
:10069C001B681B0903F00F033B607B68062B1DD105
:1006AC003B68033B042B17D801A252F823F000BF80
:1006BC00D1060000D5060000D9060000DD060000BA
:1006CC00E106000001230AE0002308E0002306E015
:1006DC00002304E0002302E0002300E0002318467E
:1006EC000C37BD4680BC7047E00F00F0E80F00F0FF
:1006FC0080B483B000AF184B1B68DBB27B60174B28
:10070C001B681B0903F00F033B607B68062B1DD194
:10071C003B68033B042B17D801A252F823F000BF0F
:10072C004107000045070000490700004D07000085
:10073C005107000001230AE0002308E0002306E033
:10074C00002304E0002302E0002300E0002318460D
:10075C000C37BD4680BC7047E00F00F0E80F00F08E
:10076C0080B483B000AF1E4B1B68B3F1FF3F0AD1BE
:10077C001C4B1B68DBB27B601B4B1B681B0903F01B
:10078C000F033B6005E0164B1B687B60174B1B6827
:10079C003B607B68062B1DD13B68033B042B17D8B1
:1007AC0001A252F823F000BFC9070000CD070000DA
:1007BC00D1070000D5070000D907000000230AE08C
:1007CC00002308E0012306E0012304E0012302E0FA
:1007DC00012300E0002318460C37BD4680BC70474F
:1007EC0030010010E00F00F0E80F00F034010010B1
:1007FC0080B483B000AF1E4B1B68B3F1FF3F0AD12E
:10080C001C4B1B68DBB27B601B4B1B681B0903F08A
:10081C000F033B6005E0164B1B687B60174B1B6896
:10082C003B607B68062B1DD13B68033B042B17D820
:10083C0001A252F823F000BF590800005D08000027
:10084C0061080000650800006908000001230AE047
:10085C00012308E0012306E0012304E0012302E068
:10086C00012300E0002318460C37BD4680BC7047BE
:10087C0030010010E00F00F0E80F00F03401001020
:10088C0080B483B000AF1E4B1B68B3F1FF3F0AD19D
:10089C001C4B1B68DBB27B601B4B1B681B0903F0FA
:1008AC000F033B6005E0164B1B687B60174B1B6806
:1008BC003B607B68062B1DD13B68033B042B17D890
:1008CC0001A252F823F000BFE9080000ED08000077
:1008DC00F1080000F5080000F908000001230AE007
:1008EC00012308E0012306E0012304E0012302E0D8
:1008FC00012300E0002318460C37BD4680BC70472E
:10090C0030010010E00F00F0E80F00F0340100108F
:10091C0080B483B000AF164B1B687B60154B1B6813
:10092C003B607B68062B1DD13B68033B042B17D81F
:10093C0001A252F823F000BF590900005D09000024
:10094C0061090000650900006909000000230AE044
:10095C00002308E0002306E0012304E0012302E069
:10096C00012300E0002318460C37BD4680BC7047BD
:10097C00300100103401001080B483B000AF164B6E
:10098C001B687B60154B1B683B607B68062B1DD17D
:10099C003B68033B042B17D801A252F823F000BF8D
:1009AC00C1090000C5090000C9090000CD090000FB
:1009BC00D109000000230AE0002308E0002306E030
:1009CC00002304E0012302E0012300E00023184689
:1009DC000C37BD4680BC704730010010340100104C
:1009EC0080B500AFFFF7C8FF0346002B07D04FF0D0
:1009FC0010234FF08042D3F80832C2F8583500BFAC
:100A0C0080BD000080B400AF034B044A1A6000BFE5
:100A1C00BD4680BC704700BF000000200090D00392
:100A2C0080B500AFFFF7E4FC0346002B06D07F4BEC
:100A3C001B681B0A7E4A03F01F031360FFF720FD9F
:100A4C000346002B02D07B4B7B4A1A60FFF750FD0C
:100A5C000346002B06D0794B1B685B0B784A03F0DE
:100A6C0007031360FFF78CFD0346002B05D0754B75
:100A7C00DB68744A23F08073D360FFF7B9FD03463B
:100A8C00002B0ED04FF080430022C3F80C214FF006
:100A9C0080430022C3F810214FF080430022C3F89A
:100AAC003825FFF7EDFD0346002B02D0664B0322E1
:100ABC001A60FFF71DFE0346002B0BD0634B05227B
:100ACC001A60634B01221A60624B00221A60624B5F
:100ADC003F221A60FFF744FE0346002B76D04FF0FE
:100AEC0080535E4AD3F80434C2F820354FF080535B
:100AFC005A4AD3F80834C2F824354FF08053574A79
:100B0C00D3F80C34C2F828354FF08053534AD3F83D
:100B1C001034C2F82C354FF08053504AD3F81434AB
:100B2C00C2F830354FF080534C4AD3F81834C2F821
:100B3C0034354FF08053494AD3F81C34C2F8403551
:100B4C004FF08053454AD3F82034C2F844354FF067
:100B5C008053424AD3F82434C2F848354FF08053BE
:100B6C003E4AD3F82834C2F84C354FF080533B4AF8
:100B7C00D3F82C34C2F850354FF08053374AD3F8A1
:100B8C003034C2F854354FF08053344AD3F83434EF
:100B9C00C2F860354FF08053304AD3F83834C2F87D
:100BAC0064354FF080532D4AD3F83C34C2F8683585
:100BBC004FF08053294AD3F84034C2F86C354FF0CB
:100BCC008053264AD3F84434C2F87035FFF710FE30
:100BDC000346002B05D0224B1B68224A03F04F031F
:100BEC001360FFF74DFE0346002B0DD04FF08043F2
:100BFC00D3F8003403F00103002B05D04FF08043F1
:100C0C006FF00102C3F80024FFF782FE0346002BAD
:100C1C0005D0154B1B68144A43F480631360FFF72F
:100C2C00DFFEFFF7EFFE00BF80BD00BF2403001006
:100C3C004035014074C007400DF0ADBA44020010BD
:100C4C003C050040F0ED00E0A005004010560040CF
:100C5C0088560040185600401456004000C0004012
:100C6C0058020010E40E00403C1700400F49104A97
:100C7C00104B00F010F81049104A114B00F00BF813
:100C8C001049114A114B00F006F81149114A124B48
:100C9C0000F001F806E0521A03DD043A9858885027
:100CAC00FBDC7047FFF7BCFEFFF7F2FA00000020F8
:100CBC0038040020E00F0000380400203804002025
:100CCC001814000038040020380400201814000008
:100CDC00380400203804002018140000FEE7FEE75A
:100CEC00FEE7FEE7FEE7FEE7FEE7FEE7FEE7FEE7D0
:100CFC00002301461A46184600F09CB808B500219E
:100D0C00044600F0CBF8044B1868C36B03B198474A
:100D1C00204600F025F900BF0002000038B5084B52
:100D2C00084D5B1B9C1007D0043B1D44013C55F83F
:100D3C0004399847002CF9D1BDE8384000F01CB9B3
:100D4C00940F0000900F000070B50D4E0D4D761BEA
:100D5C00B61006D0002455F8043B01349847A6423F
:100D6C00F9D1094E094D761B00F0FCF8B61006D0EF
:100D7C00002455F8043B01349847A642F9D170BDC4
:100D8C007C0F00007C0F0000840F00007C0F000023
:100D9C00830730B548D0541E002A3FD0CAB2034650
:100DAC0001E0013C3AD303F8012B9D07F9D1032C48
:100DBC002DD9CDB245EA05250F2C45EA054536D986
:100DCC00A4F1100222F00F0C03F1200EE6444FEABE
:100DDC00121C03F1100242E9045542E9025510328B
:100DEC007245F8D10CF1010214F00C0F03EB021256
:100DFC0004F00F0C13D0ACF1040323F00303043301
:100E0C00134442F8045B9342FBD10CF003042CB165
:100E1C00CAB21C4403F8012B9C42FBD130BD644682
:100E2C001346002CF4D1F9E703461446BFE71A46E3
:100E3C00A446E0E770B4184C2568D5F848411CB3BB
:100E4C0065681F2D25DC38B9AB1C0135656044F88D
:100E5C002310002070BC704704EB850C0228CCF8E2
:100E6C008820D4F888614FF0010202FA05F246EAB4
:100E7C000206C4F88861CCF80831E5D1D4F88C317D
:100E8C001343C4F88C31DFE705F5A674C5F8484167
:100E9C00D6E74FF0FF30DDE7000200002DE9F04F00
:100EAC00294B1F6883B0D7F848610190B6B18B46C7
:100EBC004FF001084FF000097468651E0ED4013420
:100ECC0006EB8404BBF1000F0BD0D4F800315B456A
:100EDC0007D0013D6B1CA4F10404F3D103B0BDE8B1
:100EEC00F08F73682268013BAB420CBF7560C4F88D
:100EFC000090002AEDD0D6F88801D6F804A008FAA4
:100F0C0005F101420BD190477268524512D1D7F8C6
:100F1C004831B342DDD01E46002ECDD1DEE7D6F8E7
:100F2C008C0101420BD1D4F8801001989047726863
:100F3C005245ECD0D7F84861002EBDD1CEE7D4F89D
:100F4C0080009047E0E700BF00020000024B13B1A5
:100F5C000248FFF7CDBE704700000000290D0000CD
:100F6C00FEE700BFF8B500BFF8BC08BC9E46704752
:100F7C00590F000075020000F8B500BFF8BC08BCA2
:0C0F8C009E4670474D020000000000006F
:100F9800E00F0000000000200E01000018140000FF
:100FA8003804002000000000181400003804002055
:100FB80000000000181400003804002000000000A1
:100FC800380400200700000054040020000000003E
:080FD800540400200000000099
:100FE0000090D0030000000010000020000000006E
:100FF00000000000FC02002064030020CC0300205D
:1010000000000000000000000000000000000000E0
:1010100000000000000000000000000000000000D0
:1010200000000000000000000000000000000000C0
:1010300000000000000000000000000000000000B0
:1010400000000000000000000000000000000000A0
:101050000000000000000000000000000000000090
:101060000000000000000000000000000000000080
:101070000000000000000000000000000000000070
:101080000000000000000000000000000000000060
:10109000000000000000000001000000000000004F
:1010A0000E33CDAB34126DE6ECDE05000B00000014
:1010B0000000000000000000000000000000000030
:1010C0000000000000000000000000000000000020
:1010D0000000000000000000000000000000000010
:1010E0000000000000000000000000000000000000
:0400000300000C7974
:00000001FF
